{
  "contractName": "MorarableMarketContract",
  "abi": [
    {
      "anonymous": false,
      "inputs": [
        {
          "indexed": false,
          "internalType": "uint256",
          "name": "id",
          "type": "uint256"
        },
        {
          "indexed": false,
          "internalType": "uint256",
          "name": "tokenId",
          "type": "uint256"
        },
        {
          "indexed": false,
          "internalType": "address",
          "name": "tokenAddress",
          "type": "address"
        },
        {
          "indexed": false,
          "internalType": "uint256",
          "name": "askingPrice",
          "type": "uint256"
        }
      ],
      "name": "itemAdded",
      "type": "event"
    },
    {
      "anonymous": false,
      "inputs": [
        {
          "indexed": false,
          "internalType": "uint256",
          "name": "id",
          "type": "uint256"
        },
        {
          "indexed": false,
          "internalType": "address",
          "name": "buyer",
          "type": "address"
        },
        {
          "indexed": false,
          "internalType": "uint256",
          "name": "askingPrice",
          "type": "uint256"
        }
      ],
      "name": "itemSold",
      "type": "event"
    },
    {
      "inputs": [
        {
          "internalType": "uint256",
          "name": "",
          "type": "uint256"
        }
      ],
      "name": "itemsForSale",
      "outputs": [
        {
          "internalType": "uint256",
          "name": "id",
          "type": "uint256"
        },
        {
          "internalType": "address",
          "name": "tokenAddress",
          "type": "address"
        },
        {
          "internalType": "uint256",
          "name": "tokenId",
          "type": "uint256"
        },
        {
          "internalType": "address payable",
          "name": "seller",
          "type": "address"
        },
        {
          "internalType": "uint256",
          "name": "askingPrice",
          "type": "uint256"
        },
        {
          "internalType": "bool",
          "name": "isSold",
          "type": "bool"
        }
      ],
      "stateMutability": "view",
      "type": "function",
      "constant": true
    },
    {
      "inputs": [
        {
          "internalType": "uint256",
          "name": "tokenId",
          "type": "uint256"
        },
        {
          "internalType": "address",
          "name": "tokenAddress",
          "type": "address"
        },
        {
          "internalType": "uint256",
          "name": "askingPrice",
          "type": "uint256"
        }
      ],
      "name": "addItemToMarket",
      "outputs": [
        {
          "internalType": "uint256",
          "name": "",
          "type": "uint256"
        }
      ],
      "stateMutability": "nonpayable",
      "type": "function"
    },
    {
      "inputs": [
        {
          "internalType": "uint256",
          "name": "id",
          "type": "uint256"
        }
      ],
      "name": "buyItem",
      "outputs": [],
      "stateMutability": "payable",
      "type": "function",
      "payable": true
    }
  ],
  "bytecode": "0x608060405234801561001057600080fd5b50610ddd806100206000396000f3fe6080604052600436106100345760003560e01c8063092d0afc146100395780634abc2202146100d9578063e7fb74c714610152575b600080fd5b34801561004557600080fd5b506100726004803603602081101561005c57600080fd5b8101908080359060200190929190505050610180565b604051808781526020018673ffffffffffffffffffffffffffffffffffffffff1681526020018581526020018473ffffffffffffffffffffffffffffffffffffffff1681526020018381526020018215158152602001965050505050505060405180910390f35b3480156100e557600080fd5b5061013c600480360360608110156100fc57600080fd5b8101908080359060200190929190803573ffffffffffffffffffffffffffffffffffffffff16906020019092919080359060200190929190505050610219565b6040518082815260200191505060405180910390f35b61017e6004803603602081101561016857600080fd5b81019080803590602001909291905050506106e9565b005b6000818154811061019057600080fd5b90600052602060002090600602016000915090508060000154908060010160009054906101000a900473ffffffffffffffffffffffffffffffffffffffff16908060020154908060030160009054906101000a900473ffffffffffffffffffffffffffffffffffffffff16908060040154908060050160009054906101000a900460ff16905086565b6000828460008290503373ffffffffffffffffffffffffffffffffffffffff168173ffffffffffffffffffffffffffffffffffffffff16636352211e846040518263ffffffff1660e01b81526004018082815260200191505060206040518083038186803b15801561028a57600080fd5b505afa15801561029e573d6000803e3d6000fd5b505050506040513d60208110156102b457600080fd5b810190808051906020019092919050505073ffffffffffffffffffffffffffffffffffffffff16146102e557600080fd5b858760008290503073ffffffffffffffffffffffffffffffffffffffff168173ffffffffffffffffffffffffffffffffffffffff1663081812fc846040518263ffffffff1660e01b81526004018082815260200191505060206040518083038186803b15801561035457600080fd5b505afa158015610368573d6000803e3d6000fd5b505050506040513d602081101561037e57600080fd5b810190808051906020019092919050505073ffffffffffffffffffffffffffffffffffffffff16146103af57600080fd5b60001515600160008b73ffffffffffffffffffffffffffffffffffffffff1673ffffffffffffffffffffffffffffffffffffffff16815260200190815260200160002060008c815260200190815260200160002060009054906101000a900460ff16151514610486576040517f08c379a000000000000000000000000000000000000000000000000000000000815260040180806020018281038252601c8152602001807f4974656d20697320616c726561647920757020666f722073616c65210000000081525060200191505060405180910390fd5b60008080549050905060006040518060c001604052808381526020018c73ffffffffffffffffffffffffffffffffffffffff1681526020018d81526020013373ffffffffffffffffffffffffffffffffffffffff1681526020018b81526020016000151581525090806001815401808255809150506001900390600052602060002090600602016000909190919091506000820151816000015560208201518160010160006101000a81548173ffffffffffffffffffffffffffffffffffffffff021916908373ffffffffffffffffffffffffffffffffffffffff1602179055506040820151816002015560608201518160030160006101000a81548173ffffffffffffffffffffffffffffffffffffffff021916908373ffffffffffffffffffffffffffffffffffffffff1602179055506080820151816004015560a08201518160050160006101000a81548160ff021916908315150217905550505060018060008c73ffffffffffffffffffffffffffffffffffffffff1673ffffffffffffffffffffffffffffffffffffffff16815260200190815260200160002060008d815260200190815260200160002060006101000a81548160ff021916908315150217905550806000828154811061065a57fe5b9060005260206000209060060201600001541461067357fe5b7fd3742413e0092c98517699ed9f8567218c740a5a265a7a986d9430d597937522818c8c8c604051808581526020018481526020018373ffffffffffffffffffffffffffffffffffffffff16815260200182815260200194505050505060405180910390a1809750505050505050509392505050565b806000805490508110801561071b5750806000828154811061070757fe5b906000526020600020906006020160000154145b61078d576040517f08c379a00000000000000000000000000000000000000000000000000000000081526004018080602001828103825260138152602001807f436f756c64206e6f742066696e64206974656d0000000000000000000000000081525060200191505060405180910390fd5b81600015156000828154811061079f57fe5b906000526020600020906006020160050160009054906101000a900460ff16151514610833576040517f08c379a00000000000000000000000000000000000000000000000000000000081526004018080602001828103825260158152602001807f4974656d20697320616c726561647920736f6c6421000000000000000000000081525060200191505060405180910390fd5b6000838154811061084057fe5b906000526020600020906006020160010160009054906101000a900473ffffffffffffffffffffffffffffffffffffffff166000848154811061087f57fe5b90600052602060002090600602016002015460008290503073ffffffffffffffffffffffffffffffffffffffff168173ffffffffffffffffffffffffffffffffffffffff1663081812fc846040518263ffffffff1660e01b81526004018082815260200191505060206040518083038186803b1580156108fe57600080fd5b505afa158015610912573d6000803e3d6000fd5b505050506040513d602081101561092857600080fd5b810190808051906020019092919050505073ffffffffffffffffffffffffffffffffffffffff161461095957600080fd5b6000868154811061096657fe5b9060005260206000209060060201600401543410156109ed576040517f08c379a00000000000000000000000000000000000000000000000000000000081526004018080602001828103825260158152602001807f4e6f7420656e6f7567682066756e64732073656e74000000000000000000000081525060200191505060405180910390fd5b600086815481106109fa57fe5b906000526020600020906006020160030160009054906101000a900473ffffffffffffffffffffffffffffffffffffffff1673ffffffffffffffffffffffffffffffffffffffff163373ffffffffffffffffffffffffffffffffffffffff161415610a6457600080fd5b600160008781548110610a7357fe5b906000526020600020906006020160050160006101000a81548160ff021916908315150217905550600060016000808981548110610aad57fe5b906000526020600020906006020160010160009054906101000a900473ffffffffffffffffffffffffffffffffffffffff1673ffffffffffffffffffffffffffffffffffffffff1673ffffffffffffffffffffffffffffffffffffffff1681526020019081526020016000206000808981548110610b2757fe5b906000526020600020906006020160020154815260200190815260200160002060006101000a81548160ff02191690831515021790555060008681548110610b6b57fe5b906000526020600020906006020160010160009054906101000a900473ffffffffffffffffffffffffffffffffffffffff1673ffffffffffffffffffffffffffffffffffffffff166342842e0e60008881548110610bc557fe5b906000526020600020906006020160030160009054906101000a900473ffffffffffffffffffffffffffffffffffffffff163360008a81548110610c0557fe5b9060005260206000209060060201600201546040518463ffffffff1660e01b8152600401808473ffffffffffffffffffffffffffffffffffffffff1681526020018373ffffffffffffffffffffffffffffffffffffffff1681526020018281526020019350505050600060405180830381600087803b158015610c8757600080fd5b505af1158015610c9b573d6000803e3d6000fd5b5050505060008681548110610cac57fe5b906000526020600020906006020160030160009054906101000a900473ffffffffffffffffffffffffffffffffffffffff1673ffffffffffffffffffffffffffffffffffffffff166108fc349081150290604051600060405180830381858888f19350505050158015610d23573d6000803e3d6000fd5b507f8164c6f8917e418c49813e4586897c7067de5a886aa1bea980cd11fa57d48264863360008981548110610d5457fe5b906000526020600020906006020160040154604051808481526020018373ffffffffffffffffffffffffffffffffffffffff168152602001828152602001935050505060405180910390a150505050505056fea2646970667358221220fa70d77d8a3c893738bba627f99f1b7893e5cfa52ea4a2859c8bddc1464c183364736f6c63430007060033",
  "immutableReferences": {},
  "source": "pragma solidity >=0.6.0 <0.8.0;\n\n//import \"../node_modules/@openzeppelin/contracts/token/ERC721/IERC721.sol\";\nimport \"@openzeppelin/contracts/token/ERC721/IERC721.sol\";\n\ncontract MorarableMarketContract {\n    struct AuctionItem {\n        uint256 id;\n        address tokenAddress;\n        uint256 tokenId;\n        address payable seller;\n        uint256 askingPrice;\n        bool isSold;\n    }\n\n    AuctionItem[] public itemsForSale;\n    mapping (address => mapping (uint256 => bool)) activeItems;\n\n    event itemAdded(uint256 id, uint256 tokenId, address tokenAddress, uint256 askingPrice);\n    event itemSold(uint256 id, address buyer, uint256 askingPrice);\n\n    modifier OnlyItemOwner(address tokenAddress, uint256 tokenId){\n        IERC721 tokenContract = IERC721(tokenAddress);\n        require(tokenContract.ownerOf(tokenId) == msg.sender);\n        _;\n    }\n\n    modifier HasTransferApproval(address tokenAddress, uint256 tokenId){\n        IERC721 tokenContract = IERC721(tokenAddress);\n        require(tokenContract.getApproved(tokenId) == address(this));\n        _;\n    }\n\n    modifier ItemExists(uint256 id){\n        require(id < itemsForSale.length && itemsForSale[id].id == id, \"Could not find item\");\n        _;\n    }\n\n    modifier IsForSale(uint256 id){\n        require(itemsForSale[id].isSold == false, \"Item is already sold!\");\n        _;\n    }\n\n    function addItemToMarket(uint256 tokenId, address tokenAddress, uint256 askingPrice) OnlyItemOwner(tokenAddress,tokenId) HasTransferApproval(tokenAddress,tokenId) external returns (uint256){\n        require(activeItems[tokenAddress][tokenId] == false, \"Item is already up for sale!\");\n        uint256 newItemId = itemsForSale.length;\n        itemsForSale.push(AuctionItem(newItemId, tokenAddress, tokenId, payable(msg.sender), askingPrice, false));\n        activeItems[tokenAddress][tokenId] = true;\n\n        assert(itemsForSale[newItemId].id == newItemId);\n        emit itemAdded(newItemId, tokenId, tokenAddress, askingPrice);\n        return newItemId;\n    }\n\n    function buyItem(uint256 id) payable external ItemExists(id) IsForSale(id) HasTransferApproval(itemsForSale[id].tokenAddress,itemsForSale[id].tokenId){\n        require(msg.value >= itemsForSale[id].askingPrice, \"Not enough funds sent\");\n        require(msg.sender != itemsForSale[id].seller);\n\n        itemsForSale[id].isSold = true;\n        activeItems[itemsForSale[id].tokenAddress][itemsForSale[id].tokenId] = false;\n        IERC721(itemsForSale[id].tokenAddress).safeTransferFrom(itemsForSale[id].seller, msg.sender, itemsForSale[id].tokenId);\n        itemsForSale[id].seller.transfer(msg.value);\n\n        emit itemSold(id, msg.sender,itemsForSale[id].askingPrice);\n    }\n}",
  "sourcePath": "/home/user/Desktop/Morarible/contracts/contracts/Marketplace.sol",
  "compiler": {
    "name": "solc",
    "version": "0.7.6+commit.7338295f.Emscripten.clang"
  },
  "schemaVersion": "3.2.3",
  "updatedAt": "2021-04-08T10:11:22.790Z",
  "networkType": "ethereum",
  "devdoc": {
    "kind": "dev",
    "methods": {},
    "version": 1
  },
  "userdoc": {
    "kind": "user",
    "methods": {},
    "version": 1
  }
}